:020000040800F2
:10400000186D00209D41000891E900083D9A0008C4
:10401000A9410008AB410008AD41000800000000C4
:10402000000000000000000000000000AF41000898
:10403000415E000800000000B3410008A90B010820
:10404000B7410008B7410008B7410008B741000870
:10405000B7410008B7410008B7410008B741000860
:10406000435E0008B7410008B7410008B7410008A7
:10407000B7410008B7410008B7410008B741000840
:10408000B7410008B7410008B7410008B741000830
:10409000B7410008B7410008B7410008B741000820
:1040A000B7410008B7410008B7410008B741000810
:1040B000B7410008E10C0108B7410008B74100080A
:1040C000B7410008B7410008B7410008B7410008F0
:1040D000B7410008B7410008B7410008B7410008E0
:1040E000B7410008B7410008B7410008B7410008D0
:1040F000B7410008B7410008B7410008B7410008C0
:10410000B7410008B7410008B7410008B7410008AF
:10411000B7410008B7410008B7410008B74100089F
:10412000B7410008B7410008B7410008B74100088F
:10413000B7410008B7410008B7410008B74100087F
:10414000B7410008B7410008B7410008CDE90008B1
:10415000B7410008B7410008B7410008B74100085F
:10416000B7410008B7410008B7410008B74100084F
:10417000B7410008B7410008B7410008000000003F
:10418000B7410008B7410008DFF80CD000F088FB09
:1041900000480047F14D0108186D0020064880478F
:1041A00006480047FEE7FEE7FEE7FEE7FEE7FEE71C
:1041B000FEE7FEE7FEE7FEE78D0C010889410008F7
:1041C0002DE9F04100242546002905DA01240027C5
:1041D000D0EB070067EB0101002B05DA0027D2EBDB
:1041E0000702012567EB030300F00DF986460E4632
:1041F00017469C46AC4204D00025D0EB050E65EB7B
:10420000010624B10020D2EB000760EB030C7046DE
:1042100031463A466346BDE8F08140EA01039B0718
:1042200003D009E008C9121F08C0042AFAD203E02B
:1042300011F8013B00F8013B521EF9D27047D2B28F
:1042400001E000F8012B491EFBD270470022F6E77F
:1042500010B513460A4604461946FFF7F0FF2046FC
:1042600010BD421C10F8011B0029FBD1801A7047B9
:104270002DE9FE4F81EA030404F0004421F00041DF
:1042800000944FF0000B23F0004350EA01045ED08D
:1042900052EA03045BD0C3F30A54C1F30A552C4419
:1042A000A4F2F3340194A0FB0254C1F3130141F4CE
:1042B0008011C3F3130343F4801301FB024400FB9A
:1042C000034E840A970A44EA815447EA8357A4FBC1
:1042D000076802958D0A05FB07854FEA932C04FBBE
:1042E0000C542705029D4FEA065847EA1637B5EBEE
:1042F00008056EEB070C870E920E47EA811742EA1B
:104300008312A7FB0201B6EB0B0164EB00042B0D3B
:1043100043EA0C335E1844EB1C50DA465146E7FB87
:104320000201C5F313044FEA0B3343EA14534FEA77
:104330000432019C43EA0603A4F10C040294009C9D
:10434000CDE900B400F0ADF803B0BDE8F08F002077
:104350000146F9E70EB5C10F80EAE0700844CA07CC
:10436000002140F233438DE80E000A460B4600F070
:1043700098F803B000BD70B5C1F30A5201F00045D2
:104380000024C1F3130140F2FF3341F480119A423B
:1043900001DA002070BD40F233439A42A2F2334268
:1043A00003DC524200F060F800E090402C43F1D072
:1043B000404270BD00F0004230F000400AD0C10D14
:1043C00001F56071C0F3160042EA0151C2084007CE
:1043D0001143704700200146704730B50B46014637
:1043E00000202022012409E021FA02F59D4205D394
:1043F00003FA02F5491B04FA02F52844151EA2F13E
:104400000102F1DC30BD2DE9F05F05460020924647
:104410009B4688460646814640241BE02846414686
:104420004746224600F020F853465A46C01A9141AA
:1044300010D311461846224600F044FA2D1A67EBB5
:1044400001084F4622460120002100F03BFA17EBFD
:1044500000094E41201EA4F10104DFDC484631462C
:104460002A464346BDE8F09F202A04DB203A21FA81
:1044700002F00021704721FA02F3D040C2F120027D
:10448000914008431946704710B5002B08DA401CCC
:1044900041F1000192185B411A4301D120F0010063
:1044A00010BD2DE9F04D92469B4611B1B1FA81F253
:1044B00002E0B0FA80F22032904600F003FA04469F
:1044C0000F4640EA0A0041EA0B0153465A460843A8
:1044D00013D0114653EA010019D0C8F140025046EA
:1044E000FFF7C2FF05460E4650465946424600F0C9
:1044F000E9F9084305D0012004E020463946BDE82B
:10450000F08D0020054346EAE0762C4337430A98B5
:104510006305E40AA0EB08000022FD0A44EA4754C0
:104520000A3002D500200146E9E70105101969416A
:10453000DDE9084500196941BDE8F04DA4E72DE922
:10454000FE4F804681EA0300C00F0C46009021F028
:10455000004123F00045B8EB0200A94105D24046D6
:10456000214690461C460B46024623F0004010436D
:1045700047D0270DC7F30A00C3F30A510290401A2F
:10458000019040286BDAC3F3130040F4801B0098BD
:10459000924620B10023D2EB030A63EB0B0B019888
:1045A0005946C0F14002504600F08CF906460D46CF
:1045B00050465946019A00F094F910EB0800614109
:1045C000002487EA115284EAE7731A4340D0009A24
:1045D00062B3019A012A4FEA075215DC001B61EB16
:1045E00002014FF0004202EA0752CDE90042001CEE
:1045F00041F5801132462B46FFF753FF03B0BDE86B
:10460000F08F40462146F9E7001B61EB0201001CD8
:1046100041F5801300185B412018A2F5001747EB05
:10462000030140EAD570B6196D4111E06D084FEAFB
:10463000360645EAC0754FEA0752001B61EB0201DE
:10464000001C41F5801149084FEA30000019514122
:1046500032462B4603B0BDE8F04FFFF715BF009878
:10466000012240000023D0EB020263EBE0730098CC
:1046700021464FEAE074B8EB000061EB0401E9E782
:1046800083F000435BE781F0004158E72DE9F04DEE
:1046900081EA030404F0004B21F0004514464FF07A
:1046A000000A23F0004150EA050220D054EA01023A
:1046B0001DD0C5F30A570246C5F31303C1F3130017
:1046C000C1F30A5640F4801543F48013A7EB0608A3
:1046D000101BD64608F2FD3873EB050002D308F133
:1046E000010801E092185B41B8F1000F03DA0020E5
:1046F0000146BDE8F08D00204FF480110646844647
:104700000EE0171B73EB050705D3121B63EB0503C4
:1047100006434CEA010C49084FEA300092185B410D
:1047200050EA0107EDD152EA030012D082EA0400F8
:1047300083EA0501084305D0101BAB4106D20122D4
:10474000002306E000224FF0004302E06FF0010278
:1047500053101AEB06004CEB085110EB0A0041EB2A
:104760000B01BDE8F04DFFF78FBE70B521F000439F
:1047700003430CD0C1F30A550024D5EB040564EBC8
:104780000403D617AD1AB34102DB0020014670BD09
:10479000201841EB025170BD2DE9F041054621F092
:1047A00000400C46284309D0C4F30A5040F233417C
:1047B000884205DD28462146BDE8F0812846FBE712
:1047C00040F2FE31884210DC0CDB4FEA043040EA54
:1047D000155050EA053105D0104804F0004101435E
:1047E0000020E9E700200146E6E7A0F23340464218
:1047F000C6F140022846214600F064F80746884684
:10480000284621463246FFF72FFE43463A46FFF739
:104810003BFE3246BDE8F04100F054B80000F03FE6
:10482000C1F30A52C1F3130140F2FF3341F4801186
:104830009A4202DA00200146704740F233439A421E
:10484000A2F2334202DC5242FFF70EBE00F03AB849
:1048500030B5002904DB4FF00044404264EB010115
:10486000002B04DB4FF00044524264EB03038B4205
:1048700008BF824230BD000030B5002904DB4FF094
:104880000044404264EB0101002B04DB4FF0004484
:10489000524264EB0303994208BF904230BD0000CE
:1048A000064C074D06E0E06840F0010394E807007D
:1048B00098471034AC42F6D3FFF76AFCB8530108AE
:1048C000D8530108202A04DB203A00FA02F1002024
:1048D00070479140C2F1200320FA03F3194390403E
:1048E0007047202A06DBCB17203A41FA02F043EA50
:1048F000E07306E041FA02F3D040C2F12002914099
:104900000843194670472DE9F04D00231A461B1A3B
:104910008A4103DB00200146BDE8F08DC1F30A5255
:10492000C1F3130141F480154FF0000BD10702D100
:1049300000186D41521E0027044640F2FF11384610
:1049400001EB620A3E468046024600204FF4801189
:10495000FFF78AFDC2197141BB1846EB0100B4EBA9
:10496000030C75EB000C04D3E41A65EB0005174645
:104970000E46241908F101006D4180463428E3DD1C
:10498000F91946EB0600091BA84103D24FF0FF328C
:10499000134601E0002213461BEB070046EB0A51C9
:1049A000BDE8F04DFFF770BD70B58C1810F8015BD5
:1049B00015F0070301D110F8013B2A1106D110F8B8
:1049C000012B03E010F8016B01F8016B5B1EF9D1BC
:1049D0002B0705D40023521E0DD401F8013BFAE742
:1049E00010F8013BCB1A921C03E013F8015B01F8AD
:1049F000015B521EF9D5A142D8D3002070BD000042
:104A000070B58CB0054640F2DC5408A9284600F089
:104A1000E0F904A9284600F044FA9DF810000128A6
:104A20007ED105A9284600F07FF9012803D1002096
:104A300005900690079078480078002871D0774854
:104A40000068AA2838D17648006828B9744875A14A
:104A5000026876480DF0C6FF0598A04211DA61425F
:104A6000059888420DDD0698A0420ADA6142069850
:104A7000884206DD0798A04203DA6142079888421F
:104A800008DC67480068401C654908600020059004
:104A900006900790664800680F2806DC604861A110
:104AA000026862480DF09EFF28E05D4861A102683F
:104AB0005E480DF097FF21E05848006855281DD149
:104AC000AA20564908605A48006830B958485BA186
:104AD000026856480DF086FF10E0554800680F2820
:104AE00006DC534855A1026850480DF07BFF05E0F5
:104AF0004F4854A102684D480DF074FF4B48FFF732
:104B0000B0FB06463146494801F0DAF84F480078D4
:104B100001287FD10BA9284600F082F9012801E085
:104B200078E062E006D19DF8202049A13F480DF0D1
:104B300059FF07E09DF82C309DF820204CA13B4800
:104B40000DF050FF3948FFF78CFB064631463748D9
:104B500001F0B6F80AA9284600F047F9012806D165
:104B60009DF820204AA131480DF03CFF0FE00322C0
:104B700002A903A89DED0A0A0FF0B0FF0298009069
:104B80009DF8202046A12948039B0DF02BFF2748C4
:104B9000FFF767FB06463146244801F091F809A962
:104BA000284600F0FBF8012806D19DF8202042A1FC
:104BB0001E480DF017FF0FE0032202A903A89DED88
:104BC000090A0FF08BFF029800909DF820203EA16B
:104BD0001648039B0DF006FF1448FFF742FB0646FC
:104BE0003146124801F06CF814E03C48007888B176
:104BF000079800903AA10D48DDE905230DF0F2FE7B
:104C0000C6B23A4B3246094939480FF041FC39499E
:104C1000087000BF0CB070BD2C05002034050020CA
:104C200024050020733A3025780A0000A40C0020E7
:104C300030050020733A25780A000000643A3025D8
:104C4000780A0000643A25780A000000190500205F
:104C500057484F20414D2049206164647265737349
:104C60005B25645D3A204552524F520A0000000015
:104C700057484F20414D2049206164647265737329
:104C80005B25645D3A203078253032580A000000F8
:104C90004F44525B25645D3A204552524F520A0000
:104CA0004F44525B25645D3A2025642E25303364E1
:104CB00020487A0A0000000046535B25645D3A20D4
:104CC0004552524F520A000046535B25645D3A201C
:104CD00025642E2530336420670A00001805002063
:104CE0002564092564092564090000000C050020DD
:104CF000780A00200805002070B505462C460CB93E
:104D0000012070BD206908B90120FAE720786A28DF
:104D100008D12669706D08B90120F2E72046716D4F
:104D20008847EEE70120ECE72DE9F04104460E4606
:104D30002546002715B90120BDE8F081EF680EB9BE
:104D40000120F9E7B86908B90120F5E7314628469E
:104D5000BA699047012800D1EEE70020ECE72DE981
:104D6000F04105460E462C4614B90120BDE8F081FD
:104D7000206908B90120F9E70EB90120F6E720788B
:104D80006A2809D12769F86D08B90120EEE7314694
:104D90002046FA6D9047E9E70120E7E72DE9F04169
:104DA00004460E462546002715B90120BDE8F081CE
:104DB000EF680EB90120F9E7386B08B90120F5E773
:104DC000314628463A6B9047012800D1EEE7002093
:104DD000ECE7024613460BB90120704709B90120E0
:104DE000FBE7187908700020F7E72DE9F041044649
:104DF0000E462546002715B90120BDE8F081EF6871
:104E00000EB90120F9E7786A08B90120F5E73146C3
:104E100028467A6A9047012800D1EEE70020ECE7A7
:104E20002DE9F04104460F462546002615B901201C
:104E3000BDE8F081EE68306908B90120F8E739462D
:104E4000284632699047012800D1F1E70020EFE7BA
:104E500070B505460C4600202060B5F1FF3F03D039
:104E600075B1012D13D000BF204600F0EDFB0128E5
:104E700005D1204600F016FB012800D170BD0DE0E1
:104E8000204600F0E1FB012800D1F7E706E02046CC
:104E900000F008FB012800D1F0E700BF00BF0020B0
:104EA000ECE7024613460BB90120704709B901200F
:104EB000FBE7587908700020F7E770B504462546EF
:104EC00000260DB9012070BDEE68B06808B9012058
:104ED000F9E72846B1688847012800D1F3E70020A8
:104EE000F1E72DE9F04105460F462C4614B90120A3
:104EF000BDE8F081206908B90120F9E720786A2827
:104F000009D12669306E08B90120F1E739462046FB
:104F1000326E9047ECE70120EAE7000070B50446E6
:104F2000002520484079012800D170BD0BF0F4FB2A
:104F3000012800D1F9E714201A49087000204870B0
:104F4000E02088700020C8700871487188710120C5
:104F5000C871154888601548C86000200861144869
:104F600011490860002048600E4820602068C5682C
:104F7000286838B914212068FFF768F900202060FC
:104F80000120D2E7206829688847012807D1142129
:104F90002068FFF75BF9002020600120C5E70020B2
:104FA000C3E70000C8070020F003002034030020FE
:104FB000DC07002070B505460C4600202060B5F1E6
:104FC000FF3F01D03DB100BF204600F0A9FB012802
:104FD00000D170BD06E0204600F0A2FB012800D100
:104FE000F7E700BF00BF0020F3E770B50446254691
:104FF00000260DB9012070BDEE68B06808B9012027
:10500000F9E72846B1688847012800D1F3E7002076
:10501000F1E7000070B504460025214840790128D9
:1050200000D170BD0BF078FB012800D1F9E7BC205E
:105030001B49087000204870BE208870002008714D
:10504000487188710120C871164888601648C86088
:105050000020086115481649086008461149086093
:10506000002048600E4820602068C568286838B96C
:1050700014212068FFF7EAF8002020600120D0E723
:10508000206829688847012807D114212068FFF784
:10509000DDF8002020600120C3E70020C1E7000008
:1050A00054070020C00300200C00002074000020E2
:1050B000C803002070B5044600252548407E01281D
:1050C00000D170BD0BF028FB012800D1F9E7BC200E
:1050D0001F49087500211E484175BE2181750121B7
:1050E00001760021417681760121C176194818495F
:1050F000C8611949164801620021416217481849E0
:1051000008600846134908398860002111480838AA
:10511000C1600F48143020602068C568286838B91D
:1051200014212068FFF792F8002020600120C8E7D2
:10513000206829688847012807D114212068FFF7D3
:1051400085F8002020600120BBE70020B9E70000BF
:1051500090070020C00700204000002074000020BD
:10516000E803002070B505460C4600202060B5F12C
:10517000FF3F01D03DB100BF2046FFF74BFF0128A4
:1051800000D170BD06E02046FFF744FF012800D1A2
:10519000F7E700BF00BF0020F3E770B504462546DF
:1051A00000260DB9012070BDEE68B06808B9012075
:1051B000F9E72846B1688847012800D1F3E70020C5
:1051C000F1E7000010B586B0044600BF2048806DAE
:1051D00040F080501E4988650846806D00F0805080
:1051E000009000BF00BF02F041F900BF6CB900BFE2
:1051F0001748C06C40F040001549C8640846C06CB0
:1052000000F04000009000BF00BF012C0DD100BF96
:105210000F48C06C40F001000D49C8640846C06CDE
:1052200000F00100009000BF00BF00BF094850F827
:10523000240001900120029000200390022004909D
:10524000054951F8240001A900F074FE06B010BD14
:1052500000100240085301089403002010B50446D2
:1052600054B90C4A32F8242091B20B4A52F8240067
:10527000012200F067FF0BE0012C09D1054A32F84A
:10528000242091B2044A52F82400002200F05AFF70
:1052900010BD0000085301089403002010B5044617
:1052A000044A32F8242091B2034A52F8240000F054
:1052B00045FF10BD085301089403002038B504468B
:1052C00000250120009037484079012800D138BDE1
:1052D0000BF060FB012800D1F9E7B12031490870DB
:1052E00001204870BA2088700320C870002008711F
:1052F000487188710120C8712B4888602B48C860AC
:10530000002008612A482B490860084626490860A1
:10531000002048602348206020680BF0B1FA244840
:105320004078E8B901236A46102120680BF00AFC96
:1053300008B10120CBE7206805F094FC08B10120FA
:10534000C5E74FF47A7000F0D3FD012000900123EF
:105350006A46102120680BF0F5FB08B10120B6E782
:105360002068C568286838B914212068FEF76EFFE8
:10537000002020600120AAE72068296888470128CA
:1053800007D114212068FEF761FF00202060012072
:105390009DE70021206805F0F5FA012800D196E785
:1053A000002094E77C070020D8030020780000202C
:1053B00058010020E003002038B5044600250120F4
:1053C000009033484079012800D138BD0BF0E2FA53
:1053D000012800D1F9E7B1202D490870012048705B
:1053E000BA2088700320C870002008714871887145
:1053F0000120C871274888602748C86000200861DC
:10540000264827490860084622490860002048606D
:105410001F48206020680BF033FA20480078E0B97C
:1054200001236A46102120680BF08CFB08B1012093
:10543000CBE7206805F016FC08B10120C5E7642021
:1054400000F056FD0120009001236A4610212068DB
:105450000BF078FB08B10120B7E72068C568286821
:1054600038B914212068FEF7F1FE002020600120E9
:10547000ABE7206829688847012807D114212068F4
:10548000FEF7E4FE0020206001209EE700209CE75C
:1054900090070020B8070020AC0000205801002031
:1054A000E403002038B504460025012000902D4873
:1054B000407E012800D138BD0BF06CFA012800D1E4
:1054C000F9E7332027490875012126484175322123
:1054D00081750121C1750176002141768176012116
:1054E000C17621481F49C86120491E480162002138
:1054F00041621F481F49086008461B4908398860F7
:10550000002119480838C16016481430206020680E
:105510000BF0B6F91648407840B901236A462321BA
:1055200020680BF00FFB08B10120C4E72068C568B4
:10553000286838B914212068FEF788FE0020206012
:105540000120B8E7206829688847012807D114217D
:105550002068FEF77BFE002020600120ABE70020E2
:10556000A9E7000008070020380700209802002063
:10557000E8020020A803002038B5044600250120D9
:1055800000902C484079012800D138BD0BF002FA78
:10559000012800D1F9E74020264908700120487011
:1055A0003C2088700220C870002008714871887102
:1055B000C871214888602148C860002008612048DF
:1055C0002049086008461C490860002048601948C6
:1055D000206020680BF054F91948007840B9012385
:1055E0006A46232120680BF0ADFA08B10120CCE710
:1055F0002068C568286838B914212068FEF726FE9F
:10560000002020600120C0E7206829688847012821
:1056100007D114212068FEF719FE00202060012028
:10562000B3E72021206805F009FF08B90120ACE7A5
:105630000020AAE768070020CC030020EC0200202D
:10564000E8020020D403002038B5044600250C20D1
:1056500000902D484079012800D138BD0BF09AF90F
:10566000012800D1F9E76A20274908700120487015
:10567000D62088700020C870087148718871012098
:10568000C871224888602248C860224808612248C0
:105690002249086008461D490860002048601A48F1
:1056A000206020680BF0ECF81B48407840B90123DB
:1056B0006A46122120680BF045FA08B10120CCE7B8
:1056C0002068C568286838B914212068FEF7BEFD37
:1056D000002020600120C0E7206829688847012851
:1056E00007D114212068FEF7B1FD002020600120C1
:1056F000B3E70421206807F019F908B90120ACE7E5
:1057000008F092F80020A8E70807002030070020E2
:10571000F40100206001002094020020A00300207A
:1057200038B5044600250C2000902C48407901280B
:1057300000D138BD0BF02EF9012800D1F9E76A201D
:105740002649087001204870D62088700020C87053
:105750000871487188710120C8712148886021480A
:10576000C8600020086120482049086008461C499C
:105770000860002048601948206020680BF080F81D
:105780001948007840B901236A46122120680BF0BD
:10579000D9F908B10120CCE72068C568286838B974
:1057A00014212068FEF752FD002020600120C0E790
:1057B000206829688847012807D114212068FEF74E
:1057C00045FD002020600120B3E70421206807F098
:1057D000ADF808B90120ACE70020AAE74007002097
:1057E000B00300204402002094020020B8030020EF
:1057F00070B505460C4600202060B5F1FF3F01D092
:105800003DB100BF2046FFF7B7FE012800D170BDB3
:1058100006E02046FFF7B0FE012800D1F7E700BF01
:1058200000BF0020F3E770B50446254600260DB9F9
:10583000012070BDEE68B06808B90120F9E728467C
:10584000B1688847012800D1F3E70020F1E702465C
:1058500013460BB90120704709B90120FBE71879FD
:1058600008700020F7E72DE9F04104460E46254672
:10587000002715B90120BDE8F081EF680EB90120BD
:10588000F9E7F86908B90120F5E731462846FA69D1
:105890009047012800D1EEE70020ECE72DE9F04128
:1058A00004460E462546002715B90120BDE8F081C3
:1058B000EF680EB90120F9E7B86908B90120F5E7EA
:1058C00031462846BA699047012800D1EEE700200A
:1058D000ECE72DE9F04104460E462546002715B9B0
:1058E0000120BDE8F081EF680EB90120F9E73869C1
:1058F00008B90120F5E7314628463A699047012862
:1059000000D1EEE70020ECE770B505460C4600201C
:105910002060B5F1FF3F01D03DB100BF2046FFF749
:10592000CDFC012800D170BD06E02046FFF7C6FC83
:10593000012800D1F7E700BF00BF0020F3E70246CF
:1059400013460BB90120704709B90120FBE75879CC
:1059500008700020F7E770B50446254600260DB90B
:10596000012070BDEE68B06808B90120F9E728464B
:10597000B1688847012800D1F3E70020F1E770B54E
:1059800004460125204609F00DFD04F12C0009F024
:1059900091FC05462069401C6064217E606C891C76
:1059A00001228A4050436064217A01208840A0642B
:1059B000D4E9110148436064284670BD0020704757
:1059C00010B509F0B3FE09F00DFE012804D1002046
:1059D00008490870012010BD0120064908700648DA
:1059E0000078022801D00120F5E709F089FE0020A7
:1059F000F1E70000EC030020ED0300202DE9F84F53
:105A0000804615461E46DDE90A7B4FF0000900245A
:105A100001200090C2460023FF223946102009F0E1
:105A2000ABFF10B10120BDE8F88F244800780228B0
:105A30000BD04FF400714FF0000C2A46A2FB010E70
:105A400006FB01E105FB0C1605462EE00AF000F806
:105A500029194FF000034FF0FF024FF0110009F039
:105A60008BFF08B10120DEE7FE2009F06FFFD0B9FF
:105A70004FF0000907E009F06FFE8AF800000AF114
:105A8000010A09F10109B945F5D30C48007802284B
:105A900001D03C4400E0641C09F05EFE09F05CFEAD
:105AA0000020009001E0012000905FEA0B00ABF1C4
:105AB000010BCBD109F0CCFF0098B4E7ED03002037
:105AC0002DE9F84F804616461F46DDE90A4B4FF098
:105AD0000009002501200090C246254800780228D0
:105AE00008D000233146A1FB040C07FB04C206FBCF
:105AF0000327064633E071194FF000034FF0FF0211
:105B00004FF0180009F038FF10B10120BDE8F88F00
:105B1000FF2009F02BFFFE2009F028FF4FF00009BD
:105B200007E09AF8000009F021FF0AF1010A09F1E3
:105B30000109A145F5D30E480078022801D025447B
:105B400000E06D1C09F008FE09F006FE09F024FDD6
:105B5000052802D10020009001E0012000905FEABA
:105B60000B00ABF1010BC6D109F072FF0098CDE735
:105B7000ED030020024613460BB90120704709B916
:105B80000120FBE7187908700020F7E72DE9F041C4
:105B900004460E462546002715B90120BDE8F081D0
:105BA000EF680EB90120F9E7F86908B90120F5E7B7
:105BB00031462846FA699047012800D1EEE70020D7
:105BC000ECE72DE9F04104460E462546002715B9BD
:105BD0000120BDE8F081EF680EB90120F9E7B8694E
:105BE00008B90120F5E731462846BA6990470128EF
:105BF00000D1EEE70020ECE72DE9F04104460E4627
:105C00002546002715B90120BDE8F081EF680EB9DF
:105C10000120F9E7386908B90120F5E7314628463F
:105C20003A699047012800D1EEE70020ECE770B513
:105C300005460C4600202060B5F1FF3F03D075B14A
:105C4000012D13D000BF2046FFF734FA012805D1FB
:105C50002046FFF7B1FB012800D170BD0DE02046C2
:105C6000FFF7AAFB012800D1F7E706E02046FFF77F
:105C700021FA012800D1F0E700BF00BF0020ECE7C7
:105C8000024613460BB90120704709B90120FBE712
:105C9000587908700020F7E770B5044625460026BD
:105CA0000DB9012070BDEE68B06808B90120F9E7B0
:105CB0002846B1688847012800D1F3E70020F1E7C2
:105CC00030B502460B4600210DE0505C084C094DF2
:105CD0002D68605507480088401CC0F30A00054C39
:105CE0002060481C81B29942EFD3002030BD0000F3
:105CF000EC1700207005002010B50346042B15D0CA
:105D000007DC7BB1012B0ED0022B0DD0032B3CD135
:105D10000BE0202B0BD0212B1CD0222B33D0232B9C
:105D200033D131E032E031E030E02FE02EE008788E
:105D30004C7840EA04208C7840EA0440CC7840EA71
:105D40000460144C2060087920714879607188796A
:105D5000A0711BE00F48007808700E480088000A08
:105D600048700C480068000C88700A480068000EF3
:105D7000C87008480079087106484079487105489C
:105D80008079887102E001E000E000BF00BF0020E0
:105D900010BD0000640500200020704708B500BF5A
:105DA0001348806D40F00200114988650846806DF7
:105DB00000F00200009000BF00BF002206211D205D
:105DC00000F046FC1D2000F036FC0AF0F1FF094807
:105DD00003F00CF808B100F03DF80022064907482E
:105DE0000BF0C9F9064905480BF0BEF9002008BDC3
:105DF00000100240EC270020EC170020A40D00202A
:105E0000EC0F0020024600207047000008B56946EC
:105E1000094800F020F870B90022694607480EF0E2
:105E200005FB40B106E04FF4FA7000F061F8642021
:105E300000F05EF8F7E708BD10530108480800209D
:105E4000704710B5042000F067F810BD00BFFEE7F2
:105E500000BFFEE7704730B504460D4600222946D4
:105E6000204600F001F830BDF0B5034601250024BE
:105E70001148407A01281CDC00200F4E767A0E4F24
:105E8000B8553846467A001D40F82630001F467A3D
:105E9000083082553E46707A461C7E72044604F1F4
:105EA000300008703A2048702F2088700020C87099
:105EB00000252846F0BD00000C2D002070B50A48D2
:105EC0000468001D0568001D0668344454B10822AA
:105ED0000649204603F0FFFF0422044910312846FA
:105EE00003F0F9FF70BD0000107AFF1FC20500200B
:105EF00070B50446002500F02BF9054600BF00F000
:105F000027F9401BA042FAD370BD00000121014ACD
:105F1000117070473805002010B504460448006829
:105F2000204020B1024804602046FFF7EFFF10BD7B
:105F30001404014078B50346002200240020E5E067
:105F4000012696400D6805EA0604002C7DD04D68B8
:105F5000022D02D04D68122D13D1D60803F1200571
:105F600055F826005507EE0E0F25B540A8435607F5
:105F7000F60E0D69B5402843D60803F1200545F813
:105F80002600186856000325B540A8430D7905F092
:105F900003055600B540284318604D68012D08D010
:105FA0004D68022D05D04D68112D02D04D68122D7F
:105FB00013D1986856000325B540A8435600CD6814
:105FC000B54028439860586801259540A8430D794D
:105FD000C5F300159540284358600D7905F0030579
:105FE000032D09D1D86A01259540A8430D79C5F341
:105FF000C00595402843D862D86856000325B540AF
:10600000A84356008D68B5402843D8604D6805F018
:106010008055B5F1805F78D100BF3F4D2D6E45F0C2
:1060200001053D4E356635462D6E05F0010500959E
:1060300000BF00BF4FEAB635960855F82600950711
:106040002E0F0F25B540A84300E05EE0B3F1904F5E
:1060500001D100251EE0314DAB4201D1012519E0EF
:106060002F4DAB4201D1022514E02E4DAB4201D1A0
:1060700003250FE02C4DAB4201D104250AE02B4D46
:10608000AB4201D1052505E0294DAB4201D10625E2
:1060900000E007259607360FB5402843254D9608A2
:1060A00045F82600244D2868A0434D6805F4803546
:1060B000B5F5803F00D120431F4D28602D1D286875
:1060C000A0434D6805F40035B5F5003F00D12043ED
:1060D000194D2D1D28602D1D2868A0434D6805F41D
:1060E0008015B5F5801F00D12043134D0835286079
:1060F0002D1D2868A0434D6805F40015B5F5001F57
:1061000000D120430C4D0C352860521C0D68D54041
:10611000002D7FF415AF78BD001002400004004848
:1061200000080048000C0048001000480014004817
:1061300000180048080001400004014042694A403C
:10614000426170470AB1816100E0816270470000DE
:1061500001480068704700000400002010B50446A4
:106160000CB9012010BD242084F84100206800688B
:1061700020F0010021680860204600F029FA002084
:10618000606484F84100206384F8420000BF84F812
:10619000400000BF00BFE5E7014691F841007047AD
:1061A00010B504460CB9012010BD94F8410028B97F
:1061B000002084F84000204600F00BFA242084F8E8
:1061C00041002068006820F00100216808606068D4
:1061D00020F07060216808612068806820F4004029
:1061E00021688860A06868B1E068012805D1A068CE
:1061F00040F400402168886004E0A06840F4044056
:1062000021688860E068022802D180022168486025
:10621000206840681049084321684860D4E90401B7
:106220000843A16940EA01202168C860D4E9070158
:106230000843216808602068006840F00100216878
:10624000086000206064202084F841000020206362
:1062500084F8420000BFA7E7008000022DE9FC5F40
:106260000446894692469B46DDE90C780E9E002541
:1062700094F8410020287DD117B1B8F1000F02D168
:106280000120BDE8FC9F00BF94F84000012801D127
:106290000220F6E7012084F8400000BFFFF758FF16
:1062A000054619230122D1032046009503F090FDF5
:1062B00008B10320E5E7222084F84100402084F85B
:1062C0004200002060646762A4F82A8060635B4635
:1062D000524649462046CDE9006503F00BFC80B1EB
:1062E000606C042806D100BF002084F8400000BF85
:1062F0000120C6E700BF002084F8400000BF032053
:10630000BFE7608DFF280DD9FF2020854FF4105086
:10631000009094F828204FF080734946204603F0FF
:106320003FFD0CE0608D20854FF41050009094F8F4
:1063300028204FF000734946204603F031FD00BF8E
:106340003346002204212046009503F041FD08B1A8
:10635000032096E72068406AC1B2626A501C6062FE
:106360001170208D401E2085608D401E6085208D1F
:1063700048BB00E04BE0608D28B33346002280210B
:106380002046009503F024FD08B1032079E7608DD5
:10639000FF280CD9FF2020850020009094F82820A9
:1063A0004FF080734946204603F0FAFC0BE0608D05
:1063B00020850020009094F828204FF00073494673
:1063C000204603F0EDFC608D0028B9D12A46314605
:1063D000204603F028FD30B1606C042801D1012073
:1063E0004FE703204DE720202168C86120684068FE
:1063F0000849084021684860202084F841000020B6
:1064000084F8420000BF84F8400000BF39E7022052
:1064100037E7000000E800FE2DE9FC5F04468946EE
:1064200092469B46DDE90C780E9E002594F84100CB
:1064300020286ED117B1B8F1000F02D10120BDE8BC
:10644000FC9F00BF94F84000012801D10220F6E72C
:10645000012084F8400000BFFFF77AFE05461923AB
:106460000122D1032046009503F0B2FC08B10320BD
:10647000E5E7212084F84100402084F84200002014
:1064800060646762A4F82A8060635B4652464946AE
:106490002046CDE9006503F073FB80B1606C0428F1
:1064A00006D100BF002084F8400000BF0120C6E7ED
:1064B00000BF002084F8400000BF0320BFE7608DCC
:1064C000FF280CD9FF2020850020009094F8282078
:1064D0004FF080734946204603F062FC0BE0608D6C
:1064E00020850020009094F828204FF00073494642
:1064F000204603F055FC00BF2A463146204603F0F3
:10650000BDFC38B1606C042801D1012097E703205D
:1065100095E759E0616A481C6062087821688862E2
:10652000608D401E6085208D401E2085208D38BBEB
:10653000608D28B33346002280212046009503F069
:1065400047FC08B103207AE7608DFF280CD9FF20B3
:1065500020850020009094F828204FF08073494651
:10656000204603F01DFC0BE0608D2085002000908C
:1065700094F828204FF000734946204603F010FCA1
:10658000608D0028B8D12A463146204603F04BFCE6
:1065900030B1606C042801D1012050E703204EE7A0
:1065A00020202168C86120684068084908402168A7
:1065B0004860202084F84100002084F8420000BF99
:1065C00084F8400000BF3AE7022038E700E800FE08
:1065D0007047704702480068401C014908607047D6
:1065E0000400002010B50848006840F48070064997
:1065F0000860032000F06AF80F2000F007F800F0B0
:1066000019F8002010BD00000020024070B50446BB
:10661000074800684FF47A71B0FBF1F5284602F0A4
:10662000AEFB00222146501E00F012F8002070BD83
:1066300008000020704700BF00F01F0201219140B8
:106640004209920002F1E022C2F8001100BF704737
:106650002DE9F05F80460D461646002708F09AF9AE
:10666000074639462A46334601F00700C0F1070ABB
:10667000BAF1040F02D94FF0040A01E0C0F1070A91
:10668000D14600F1040ABAF1070F02D24FF0000A16
:1066900001E0A0F1030AD4464FF0010A0AFA09FA10
:1066A000AAF1010A0AEA020A0AFA0CFA4FF0010BEF
:1066B0000BFA0CFBABF1010B0BEA030B4AEA0B04E0
:1066C0002146404608F06EF9BDE8F09F00BF00F09B
:1066D0000702064B19684FF6FF031940044B0B43A2
:1066E00043EA0221014B196000BF70470CED00E046
:1066F0000000FA0501460A680120C1F8C403906B46
:1067000040F40030906300207047000001460A68A2
:106710000120C1F8C003002081F8B803906940F05F
:1067200000609061506D024B184350650020704727
:106730000300001070470246106841620020704755
:10674000F0B503461446002500221868426A21B9B4
:1067500042EA04401E68B06219E01868806A02EBE1
:106760001042002508E0186800F5827050F82500F6
:1067700002EB1042681CC5B2481EA842F3DC42EA94
:106780000447186800F582704E1E40F826700020FD
:10679000F0BD10B50446D4F8C8030AF0E9FF10BDF7
:1067A00070B504460D46C5EBC50304F13C0101EB91
:1067B0008301CA682946D4F8C8030AF029FF70BDCE
:1067C00070B504460D46C5EBC50304F5F07101EB49
:1067D0008301CA682946D4F8C8030AF086FF70BD51
:1067E00010B50446D4F8C8030AF0C5FF10BD70B553
:1067F00004460D46002605F08000802808D105F0EB
:106800007F00C0EBC00104F13C0000EB810607E013
:1068100005F07F00C0EBC00104F5F07000EB8106CD
:1068200005F07F00307005F08000C009707000BF77
:1068300094F88403012801D1022070BD012084F85E
:10684000840300BF314620680BF0E6FB00BF002048
:1068500084F8840300BF00BFEFE770B504460D461F
:10686000002605F08000802808D105F07F00C0EBED
:10687000C00104F13C0000EB810605E0C5EBC50159
:1068800004F5F07000EB81060020B07005F07F0089
:106890003070C5F3C010707000BF94F884030128F5
:1068A00001D1022070BD012084F8840300BF31466D
:1068B00020680BF0CEFD00BF002084F8840300BFE9
:1068C00000BFEFE7024601F07F00C0EBC00302F516
:1068D000F07000EB8300008B80B270472DE9F04729
:1068E00004460D46174698464FF00009002605F06D
:1068F0008000802808D105F07F00C0EBC00104F1C2
:106900003C0000EB810607E005F07F00C0EBC00112
:1069100004F5F07000EB810605F07F00307005F0A3
:106920008000C0097070B76086F8038000BF94F8DB
:106930008403012802D10220BDE8F087012084F8F9
:10694000840300BF314620680BF0AEFA00BF002080
:1069500084F8840300BF4846EEE72DE9F041044681
:106960000E4617469846002506F07F00C0EBC00192
:1069700004F5F07000EB8105EF60C5F8148000208D
:10698000A861687006F07F00287000BF94F8840347
:10699000012802D10220BDE8F081012084F884039F
:1069A00000BF06F07F0028B9227C294620680BF042
:1069B00075FC04E0227C294620680BF0D5FD00BF61
:1069C000002084F8840300BF00BFE4E770B50446EC
:1069D0000D46002605F08000802808D105F07F00D4
:1069E000C0EBC00104F13C0000EB810605E0C5EB03
:1069F000C50104F5F07000EB81060120B07005F0D0
:106A00007F003070C5F3C010707000BF94F884032D
:106A1000012801D1022070BD012084F8840300BF49
:106A2000314620680BF059FD05F07F0028B9217C24
:106A300004F5627220680BF0F3FC00BF002084F8BC
:106A4000840300BF00BFE6E72DE9F04104460E468F
:106A500017469846002506F07F00C0EBC00104F100
:106A60003C0000EB8105EF60C5F814800020A861B0
:106A70000120687006F07F00287000BF94F884033E
:106A8000012802D10220BDE8F081012084F88403AE
:106A900000BF06F07F0028B9227C294620680BF051
:106AA000FDFB04E0227C294620680BF05DFD00BF61
:106AB000002084F8840300BF00BFE4E72DE9FC5FF9
:106AC000044626684FF0000B002001908146002507
:106AD000009080468246FE4F20680BF0CFFE0028D3
:106AE00079D120680BF005FF08B9BDE8FC9F20684C
:106AF0000BF0FFFE00F00200022805D1206840697B
:106B000000F002002168486120680BF0F2FE00F4FA
:106B10000020B0F5002F7DD1002520680BF0BCFED1
:106B2000019085E0019800F0010000287CD0E9B2D6
:106B300020680BF0D3FE814609F00100002859D0EF
:106B4000012106F5306000EB45108160D6F8080B96
:106B500000F40040F0BB206901282BD1C5EBC50132
:106B600004F5F07000EB8100816806F5306000EB01
:106B700045100069C0F31200091AC5EBC50204F5FF
:106B8000F07000EB82008161C5EBC50104F5F07087
:106B900000EB8100C5EBC502C16804F5F07000EBA5
:106BA000820080680144C5EBC50204F5F07000EB7B
:106BB0008200C160E9B22046FFF702FE2069012889
:106BC00011D13DB9C5EBC50104F5F07000EB8100B2
:106BD000406901E007E0D3E228B904F562720121BF
:106BE00020680BF01DFCD6F8081B48F2200001437A
:106BF000C6F8081B09F00800082808D1204600F054
:106C00000AFC082106F5306000EB4510816009F0B0
:106C1000100001E010E007E0102805D1102106F572
:106C2000306000EB451081606D1C019840080190B8
:106C3000019800287FF476AF20680BF05AFE00F42C
:106C40008020B0F5802F7DD120680BF01CFE0190D4
:106C5000002585E0019800F0010000287CD0E9B211
:106C600020680BF022FE814609F00100F0B30120FC
:106C7000A840009040F6340080590099884340F6BF
:106C800034018851012106F5106000EB4510816048
:106C90002069012815D1C5EBC50104F13C0000EBCA
:106CA0008100C5EBC502C16804F13C0000EB820025
:106CB00080680144C5EBC50204F13C0000EB820092
:106CC000C160E9B22046FFF76BFD2069012810D1B1
:106CD00065B9C5EBC50104F13C0000EB81004069DA
:106CE00020B904F562720121206800E001E00BF098
:106CF00097FB09F00800082805D1082106F5106067
:106D000000EB4510816009F01000102805D110211A
:106D100006F5106000EB4510816009F04000402846
:106D200005D1402106F5106000EB4510816009F0A7
:106D30000200022805D1022106F5106000EB451083
:106D4000816001E010E007E009F08000802803D1B5
:106D50002946204607F042FE6D1C0198400801902C
:106D6000019800287FF476AF20680BF0C2FD00F098
:106D70000040B0F1004F1CD140F60400805920F0D3
:106D8000010140F60400815194F8B803012807D1AD
:106D9000002084F8B80300212046FFF7CBFC02E076
:106DA000204600F00FFB2068406900F00040216899
:106DB000486120680BF09DFD00F40060B0F5006FA5
:106DC0000ED140F60800805900F0010010B12046B5
:106DD00000F044FB2068406900F4006021684861CD
:106DE00020680BF086FD00F00060B0F1006F19D153
:106DF0002068406900F000602168486194F8B80399
:106E000068B9012084F8B8032068406DC0F383009E
:106E1000C4F8BC0301212046FFF78CFC02E02046A9
:106E200000F01CFB20680BF064FD00F48050B0F50E
:106E3000805F5FD140F60400805920F0010140F6E8
:106E400004008151002120680BF000FD4FF0000B81
:106E50000CE0FF2106F5106000EB4B10816006F599
:106E6000306000EB4B1081600BF1010B60685845FE
:106E7000EFD84FF0FF3140F618008151001D8059C6
:106E800040F0011140F61C008151206B70B1D6F822
:106E9000840840F00B01C6F8841840F6440080597D
:106EA00040F00B0140F6440081510EE040F6140022
:106EB000805940F00B0140F614008151001F8059A9
:106EC00040F00B014FF401608151D6F8000801E059
:106ED00000B4C40420F4FE60C6F80008217C04F568
:106EE000627220680BF09CFA2068406900F48050C0
:106EF0002168486120680BF0FCFC00F40050B0F5FC
:106F0000005F77D120680BF031F82068C06820F46A
:106F100070502168C8600321E1604021616100F088
:106F200043FE07469748874209D39748874206D2CF
:106F30002068C06840F470502168C8606EE09248D4
:106F4000874209D39148874206D22068C06840F43E
:106F500060502168C86061E08C48874209D38C4842
:106F6000874206D22068C06840F450502168C8604B
:106F700054E08748874209D38648874206D2206872
:106F8000C06840F440502168C86047E081488742AB
:106F900009D38148874206D22068C06840F4305047
:106FA0002168C8603AE07C48874209D37B48874221
:106FB00006D22068C06840F420502168C8602DE0E7
:106FC0007648874209D37648874206D22068C0684F
:106FD00040F410502168C86020E0714887420AD30D
:106FE0007048874207D22068C06840F4005021688A
:106FF000C86013E01BE06B48874209D36A488742A8
:1070000006D22068C06840F4E0502168C86005E0FE
:107010002068C06840F4C0502168C860204600F075
:10702000C5F92068406900F4005021684861206873
:107030000BF05FFC00F01000102845D1206880693B
:1070400020F0100021688861D6F8208008F00F0039
:10705000C0EBC00104F5F07000EB810AC8F34340B7
:1070600002281AD147F6F07008EA000030B3C8F3DE
:107070000A123046DAF80C100BF041FCC8F30A1182
:10708000DAF80C000844CAF80C00C8F30A11DAF860
:1070900018000844CAF8180010E0C8F34340062856
:1070A0000CD1082204F5627130460BF028FCC8F3BD
:1070B0000A11DAF818000844CAF818002068806934
:1070C00040F010002168886120680BF012FC00F08D
:1070D0000800082808D1204600F07BF920684069A4
:1070E00000F008002168486120680BF002FC00F401
:1070F0008010B0F5801F09D1E9B2204600F056F8A3
:107100002068406900F480102168486120680BF015
:10711000F0FB00F40010B0F5001F09D1E9B22046E1
:1071200000F04DF82068406900F4001021684861C3
:1071300020680BF0DEFB00F08040B0F1804F08D1FA
:107140002046FFF726FB2068406900F08040216858
:10715000486120680BF0CDFB00F0040004280FD13B
:107160002068D0F8048008F00400042802D12046EA
:10717000FFF736FB2068406840EA08002168486055
:1071800000BFB2E4C0ACD800C0E1E4000024F400C9
:1071900080730601A0491A01002D310140A44C0161
:1071A00000366E0120ABA6010048E80170B5044628
:1071B0000D462946D4F8C8030AF042FB70BD70B5ED
:1071C00004460D462946D4F8C8030AF03CFB70BDBE
:1071D00030B58BB00446002514B901200BB030BD8A
:1071E00094F8850328B9002084F88403204600F031
:1071F000A1F8032084F8850320680BF047F82822C3
:1072000004F110016846FDF708F894E80F000AF051
:10721000CFFE002120680BF086FB002530E0012125
:10722000C5EBC50204F13C0000EB82004170C5EBE8
:10723000C50204F13C0000F82250C5EBC50200EB8A
:107240008200C5800021C5EBC50204F13C0000EBC3
:107250008200C170C5EBC50204F13C0000EB820066
:107260008160C5EBC50204F13C0000EB8200C16007
:10727000C5EBC50204F13C0000EB820041616D1CCE
:107280006068A842CBD8002531E00021C5EBC502DB
:1072900004F5F07000EB82004170C5EBC50204F507
:1072A000F07000F82250C5EBC50204F13C0000EB81
:1072B0008200C580C5EBC50204F5F07000EB8200CA
:1072C000C170C5EBC50204F5F07000EB820081606F
:1072D000C5EBC50204F5F07000EB8200C160C5EBA0
:1072E000C50204F5F07000EB820041616D1C0F2DAA
:1072F000CBD3282204F110016846FCF78EFF94E8F6
:107300000F000AF0FBFE002084F83800012084F80A
:107310008503606A012802D12046FFF7F7F9A06AC9
:10732000012802D12046FFF7E5F920680AF0D7FED0
:10733000002053E710B586B0044600BF1A48C06C61
:1073400040F001001849C8640846C06C00F0010014
:10735000009000BF00BF4FF4C05001900220029087
:1073600000200390032004900A20059001A94FF00B
:107370009040FEF7DFFD00BF0B48C06C40F480502A
:107380000949C8640846C06C00F48050009000BFF2
:1073900000BF002206214320FFF75AF94320FFF7E0
:1073A0004AF906B010BD00000010024010B50446B6
:1073B000D4F8C8030AF06AFA0121D4F8C8030AF025
:1073C0009FFA10BD10B50446D4F8C8030AF080FA3D
:1073D00010BD10B50446D4F8C8030AF080FA10BDF9
:1073E00070B504460D4600BF94F88403012801D10E
:1073F000022070BD012084F8840300BF84F8385057
:10740000294620680BF0A7FA00BF002084F8840307
:1074100000BF00BFEDE710B5044604F56271D4F873
:10742000C8030AF07BFA10BD10B5044600BF94F8FB
:107430008403012801D1022010BD012084F88403B7
:1074400000BF20680AF03CFE20680BF0E1F900BFA5
:10745000002084F8840300BF00BFEDE710B50446A8
:10746000D4F8C8030AF0A3FA10BD0000034840682E
:1074700040F400700149486070470000007000400F
:107480000348406840F4806001494860704700004C
:10749000007000400248006800F4C06070470000BF
:1074A000007000400348006840F4807001490860A3
:1074B00070470000007000400648006820F020007F
:1074C00004499039C1F890000846806920F40070A2
:1074D00088617047901002400348006840F0040043
:1074E0000149086070470000001002402DE9F84390
:1074F0000446002600270025A846208800F40060E6
:10750000B0F5006F30D1606E80B1B0F5800F13D050
:10751000B0F5000F03D0B0F5400F15D113E0FA48D5
:10752000C06840F48030F849C8600FE00021201D99
:1075300007F0CEFB054609E0002104F1200007F02A
:10754000BDFC054602E001E0012500BF00BF55B9C2
:10755000ED488830006820F44000616E0843EA4935
:10756000C1F8880000E0A846208800F48050B0F5FB
:10757000805F30D1A06E80B1B0F1807F13D0B0F1C8
:10758000007F03D0B0F1407F15D113E0DE48C06822
:1075900040F48030DC49C8600FE00021201D07F076
:1075A00097FB054609E0002104F1200007F086FC66
:1075B000054602E001E0012500BF00BF55B9D248F1
:1075C0008830006820F04070A16E0843CE49C1F8B1
:1075D000880000E0A846206800F40030B0F5003FC5
:1075E00076D14FF00009C848806D00F0805078B91E
:1075F00000BFC548806D40F08050C349886508468B
:10760000806D00F08050009000BF00BF4FF0010976
:10761000BE48006840F48070BC490860FEF798FDE1
:10762000074606E0FEF794FDC01B022801D903259A
:1076300005E0B648006800F480700028F2D000BF72
:1076400085BBB1489030006800F44076D6B1D4F8DC
:107650008400B04216D0AC489030006820F44076E8
:10766000A948D0F8900040F48030A749C1F89000B4
:107670000846D0F8900020F48030C1F89000084609
:10768000C0F8906006F00100A8B1FEF761FD074662
:1076900009E0FEF75DFDC01B41F28831884202D946
:1076A000032507E017E098489030006800F00200DA
:1076B0000028EED000BF65B993489030006820F4F0
:1076C0004070D4F8841008438F49C1F8900003E05B
:1076D0000CE0A84600E0A846B9F1010F05D18A48A0
:1076E000806D20F080508849886500BF207800F0C8
:1076F000010048B184488830006820F00300A16B85
:1077000008438149C1F88800207800F0020002286F
:1077100009D17D488830006820F00C00E16B0843F7
:107720007949C1F88800207800F00400042809D1C4
:1077300075488830006820F03000216C0843724999
:10774000C1F88800207800F00800082809D16E48A8
:107750008830006820F0C000616C08436A49C1F8B5
:107760008800207800F01000102809D16648883081
:10777000006820F44070A16C08436349C1F8880098
:10778000207800F02000202809D15F488830006868
:1077900020F44060E16C08435B49C1F88800208810
:1077A00000F40070B0F5007F09D1574888300068B8
:1077B00020F44020E16D08435349C1F88800208837
:1077C00000F48060B0F5806F09D14F4888300068C0
:1077D00020F44010216E08434B49C1F888002078FE
:1077E00000F04000402809D147488830006820F464
:1077F0004050216D08434449C1F88800207800F0CA
:107800008000802809D140488830006820F440403A
:10781000616D08433C49C1F88800208800F48070FD
:10782000B0F5807F09D138488830006820F44030B6
:10783000A16D08433449C1F88800208800F4005045
:10784000B0F5005F1FD130488830006820F04060FC
:10785000E16E08432C4988310860E06EB0F1006F9A
:1078600006D12948C06840F480102749C8600AE062
:10787000E06EB0F1806F06D10121201D07F028FADB
:10788000054605B1A846206800F40020B0F5002F99
:107890001FD11D488830006820F04060216F0843E8
:1078A000194988310860206FB0F1006F06D1164881
:1078B000C06840F480101449C8600AE0206FB0F13D
:1078C000806F06D10121201D07F002FA054605B19F
:1078D000A846206800F48020B0F5802F23D10A4804
:1078E0008830006820F04060616F084306498831A5
:1078F0000860606FB0F1006F0AD10348C06840F4BF
:1079000080100149C8600EE0001002400070004085
:10791000606FB0F1806F06D10121201D07F0D8F90A
:10792000054605B1A846208800F48040B0F5804F98
:107930001FD12248006820F04050A16F08431F4922
:107940000860A06FB0F1805F07D10221201D07F011
:10795000BFF905466DB1A8460BE0A06FB0F1005F1E
:1079600007D1022104F1200007F0A8FA054605B16D
:10797000A846208800F40040B0F5004F09D10F4818
:10798000006820F08040E16F08430C498839C1F855
:107990008800206800F48030B0F5803F0AD10748A5
:1079A000006820F00040D4F880100843034988396B
:1079B000C1F888004046BDE8F88300008810024006
:1079C00070B504460D4600267348006800F00700B5
:1079D000A8420ED27048006820F0070028436E4984
:1079E00008600846006800F00700A84201D00120A6
:1079F00070BD207800F00200022807D16748806837
:107A000020F0F000A168084364498860207800F005
:107A10000100002879D06068022806D15F4800681C
:107A200000F40030D8B90120E2E76068032806D1ED
:107A30005A48006800F0007088B90120D8E76068F3
:107A400030B95648006800F0020040B90120CFE785
:107A50005248006800F4806008B90120C8E74F4828
:107A6000806820F00300616808434C498860FEF795
:107A70006FFB06466068022810D108E0FEF768FB3D
:107A8000801B41F28831884201D90320B0E7434886
:107A9000806800F00C000828F0D136E06068032808
:107AA00010D108E0FEF754FB801B41F28831884278
:107AB00001D903209CE73948806800F00C000C28AD
:107AC000F0D122E0606880B908E0FEF741FB801B3E
:107AD00041F28831884201D9032089E72F48806824
:107AE00000F00C000028F0D10FE008E0FEF730FBBA
:107AF000801B41F28831884201D9032078E727486A
:107B0000806800F00C000428F0D12348006800F0E1
:107B10000700A8420ED92048006820F0070028433B
:107B20001D4908600846006800F00700A84201D01F
:107B300001205DE7207800F00400042807D11748F1
:107B4000806820F4E060E168084314498860207888
:107B500000F00800082808D11048806820F4605020
:107B6000216940EAC1000D49886000F023F80B4903
:107B7000896801F0F001F02292FAA2F2B2FA82F2E0
:107B8000D140074A515CC840064908600F20FEF703
:107B90003DFD00202CE700000020024000100240C4
:107BA0001C520108080000200148006870470000CE
:107BB00008000020F0B50021002300240225022245
:107BC0000020554EB66806F00C065EB1524EB668FF
:107BD00006F00C060C2E2DD14F4EF66806F003066B
:107BE000012E27D14C4E366806F008066EB94A4E73
:107BF0009436366806F470664FF4706797FAA7F704
:107C0000B7FA87F726FA07F10AE0434E366806F01E
:107C1000F006F02797FAA7F7B7FA87F726FA07F1E1
:107C20003E4E56F821103C4EB66806F00C0686B95A
:107C300008460EE0384EB66806F00C06042E01D158
:107C4000374806E0344EB66806F00C06082E00D120
:107C50003448314EB66806F00C060C2E5BD12E4E21
:107C6000F66806F003042C4EF66806F070067027DE
:107C700097FAA7F7B7FA87F7FE40721C012C29D0B4
:107C8000022C02D0032C24D111E0254EB6FBF2F6D3
:107C9000214FFF6807F4FE474FF4FE4C9CFAACFC02
:107CA000BCFA8CFC27FA0CF706FB07F323E01D4E09
:107CB000B6FBF2F6184FFF6807F4FE474FF4FE4C90
:107CC0009CFAACFCBCFA8CFC27FA0CF706FB07F319
:107CD00011E000BFB1FBF2F60F4FFF6807F4FE475B
:107CE0004FF4FE4C9CFAACFCBCFA8CFC27FA0CF767
:107CF00006FB07F300BF00BF074EF66806F0C0663C
:107D00004FF0C06797FAA7F7B7FA87F7FE40761CDF
:107D10007500B3FBF5F0F0BD0010024034520108CD
:107D20000024F40000127A00F8B5044600252078FB
:107D300000F01000102874D1FE48806800F00C009C
:107D4000002870D1FB48006800F0020018B1A0695B
:107D500008B90120F8BDF748216A006800F0080062
:107D600020B1F448006800F0F00005E0F1489430DC
:107D7000006800F47060000981421FD9206A07F092
:107D800073F908B10120E5E700BFEA48006840F058
:107D90000800E84908600846006820F0F000216A01
:107DA0000843E449086000BF0846406820F47F406B
:107DB000E16940EA0120DF4948601EE000BFDD487C
:107DC000006840F00800DB4908600846006820F0C1
:107DD000F000216A0843D749086000BF08464068A0
:107DE00020F47F40E16940EA0120D2494860206ADE
:107DF00007F03AF908B10120ACE7FFF7DBFECD4907
:107E0000896801F0F001F02292FAA2F2B2FA82F24D
:107E1000D140C94A515CC840C84908600F20FEF7EC
:107E2000F5FB4BE0FFE7A06980B3C248006840F073
:107E30000100C0490860FEF78BF9054606E0FEF731
:107E400087F9401B022801D9032083E7B94800685D
:107E500000F002000028F2D000BFB648006840F0F1
:107E60000800B44908600846006820F0F000216A64
:107E70000843B049086000BF0846406820F47F40CE
:107E8000E16940EA0120AB49486017E0FFE7A948F3
:107E9000006820F00100A7490860FEF759F905467F
:107EA00006E0FEF755F9401B022801D9032051E7EF
:107EB000A048006800F002000028F2D1207800F00D
:107EC000010000286CD09B48806800F00C00082856
:107ED0000BD09848806800F00C000C280ED1954813
:107EE000C06800F00300032808D19248006800F43D
:107EF000003088B3606878BB01202BE700BF606862
:107F0000B0F5803F06D18B48006840F48030894945
:107F100008601AE06068B0F5A02F0BD185480068B2
:107F200040F48020834908600846006840F48030AF
:107F300008600AE07F48006820F480307D490860CE
:107F40000846006820F48020086000BF6068A0B187
:107F5000FEF7FEF8054609E022E0FEF7F9F8401BBF
:107F600041F28831884201D90320F3E67148006864
:107F700000F400300028F0D012E0FEF7E9F80546E2
:107F800008E0FEF7E5F8401B41F28831884201D94C
:107F90000320DFE66748006800F400300028F0D1D5
:107FA000207800F0020002286AD16248806800F060
:107FB0000C0004280BD05F48806800F00C000C28EF
:107FC0001ED15C48C06800F00300022818D159484F
:107FD000006800F4806018B1E06808B90120B9E6D3
:107FE0005448406820F0F8504FF0F85292FAA2F24C
:107FF000B2FA82F22169914008434E4948603FE05D
:10800000E06830B34B48006840F48070494908602C
:10801000FEF79EF8054606E0FEF79AF8401B022898
:1080200001D9032096E64348006800F480600028E8
:10803000F2D04048406820F0F8504FF0F85292FAE1
:10804000A2F2B2FA82F221699140084339494860AC
:1080500016E03848006820F4807036490860FEF762
:1080600077F8054606E0FEF773F8401B022801D9B1
:1080700003206FE62F48006800F480600028F2D1EA
:10808000207800F00800082836D16069D0B129486E
:108090009430006840F001002649C1F89400FEF7D2
:1080A00057F8054606E0FEF753F8401B022801D9B1
:1080B00003204FE61F489430006800F002000028BB
:1080C000F1D019E01B489430006820F001001949F4
:1080D000C1F89400FEF73CF8054606E0FEF738F8D4
:1080E000401B022801D9032034E61248943000686E
:1080F00000F002000028F1D1207800F004000428EC
:1081000070D100260B48806D00F0805070B900BF20
:108110000848806D40F08050064988650846806DAB
:1081200000F08050009000BF00BF012604480068A6
:1081300008E00000001002401C5201080800002066
:108140000070004000F48070B0B98948006840F4C5
:10815000807087490860FDF7FBFF054606E0FDF7E4
:10816000F7FF401B022801D90320F3E5804800688F
:1081700000F480700028F2D000BFA068012808D168
:108180007C48006840F001007A499039C1F89000BD
:1081900021E0A06805280FD17648006840F004006F
:1081A00074499039C1F890000846D0F8900040F02A
:1081B0000100C1F890000EE06E48006820F0010058
:1081C0006C499039C1F890000846D0F8900020F032
:1081D0000400C1F8900000BFA068A0B1FDF7B8FF8F
:1081E000054609E02DE0FDF7B3FF401B41F2883161
:1081F000884201D90320ADE55E48006800F0020026
:108200000028F0D012E0FDF7A3FF054608E0FDF7D7
:108210009FFF401B41F28831884201D9032099E534
:108220005448006800F002000028F0D1012E07D168
:1082300050489038806D20F080504E4990398865C4
:1082400000BFA06AF0B34B489038806800F00C0083
:108250000C2879D0A06A022853D14648903800688B
:1082600020F08070434990390860FDF771FF0546A2
:1082700006E0FDF76DFF401B022801D9032069E5E8
:108280003C489038006800F000700028F1D1206B65
:10829000401E0101606B41EA0021A06B000941EA28
:1082A0004040E16A0843A18F0122C2EB510140EA3C
:1082B00041514020005DC2EB500041EA40602D4931
:1082C000903900E052E0C8600846006840F08070D5
:1082D00008600846C06840F08070C860FDF738FF4D
:1082E000054606E0FDF734FF401B022801D90320B4
:1082F00030E520489038006800F000700028F1D088
:1083000034E01C489038006820F08070194990399A
:1083100008600846006800F0006048B90846006838
:1083200000F0005020B90846C06820F00300C86083
:1083300010489038C068104908400E499039C8600C
:10834000FDF706FF054607E00EE0FDF701FF401BC5
:10835000022801D90320FDE406489038006800F0A7
:1083600000700028F1D101E00120F3E40020F1E4E5
:108370000070004090100240FFFFEEFE70B5054611
:108380000B4616460024286840680E4900EA01049E
:10839000200CD870C4F30420587004F03F0098708B
:1083A000C4F3423018705EB9D87806F0ADFED870CC
:1083B000587806F0A9FE5870987806F0A5FE9870D7
:1083C000002070BD3FFFFF0070B504460B46164607
:1083D00000252068806A586020680069C0F30E009C
:1083E0009860206800680F4900EA0105C5F3054060
:1083F0001870C5F30620587005F07F00987005F4DA
:108400008000000CD8705EB9187806F07DFE1870F8
:10841000587806F079FE5870987806F075FE9870D6
:10842000002070BD7F7F7F0010B504460CB901208D
:1084300010BD94F8210028B9002084F820002046BF
:1084400000F054F8022084F8210000BFCA202168FF
:10845000486253202168486200BF204606F086FE2D
:1084600048B100BFFF202168486200BF042084F8A3
:1084700021000120DCE7206880681B490840216852
:108480008860216960680843A16908432168896898
:108490000843216888602168E068086120680169F4
:1084A000208941EA0040216808612068C06820F006
:1084B00080002168C8602068C06C20F0030021683B
:1084C000C8646169E06908432168C96C0843216890
:1084D000C86400BFFF202168486200BF012084F803
:1084E00021000020A4E70000BFFF8FFF10B5044665
:1084F0000848006840F4004006499039C1F89000EF
:1085000000220F212920FEF7A3F82920FEF793F877
:1085100010BD0000901002402DE9F04104460D46C8
:108520001646002700BF94F82000012802D102203F
:10853000BDE8F081012084F8200000BF022084F80B
:1085400021004EB9687800F01000102804D1687836
:1085500000F0EF000A30687086B9E87806F0DFFDB9
:108560000304687806F0DBFD43EA0023A87806F0F0
:10857000D6FD0343287843EA403711E0687806F0D7
:10858000C3FD0746A87806F0BFFD0746E87800045B
:10859000697840EA0120A9780843297840EA413700
:1085A00000BFCA202168486253202168486200BF8A
:1085B000204606F0DBFD70B100BFFF202168486255
:1085C00000BF042084F8210000BF002084F82000B0
:1085D00000BF0120ACE71848384021684860206897
:1085E000C06820F080002168C8602068806800F0C2
:1085F000200090B9204600F0C5F870B100BFFF2000
:108600002168486200BF042084F8210000BF0020D8
:1086100084F8200000BF01208AE700BFFF20216806
:10862000486200BF012084F8210000BF002084F8C8
:10863000200000BF00BF7BE73FFFFF002DE9F041B6
:1086400004460D461646002700BF94F82000012876
:1086500002D10220BDE8F081012084F8200000BF93
:10866000022084F82100CEB92068806800F0400024
:1086700000B102E00020E87000BF287806F04FFD4E
:108680000304687806F04BFD43EA0023A87806F05F
:1086900046FD0343E87843EA004716E02068806817
:1086A00000F0400020B1287806F02EFD074602E0D9
:1086B0000020E87000BF28780004697840EA0120B3
:1086C000A9780843E97840EA014700BFCA20216839
:1086D000486253202168486200BF204606F046FDEC
:1086E00070B100BFFF202168486200BF042084F8F9
:1086F000210000BF002084F8200000BF0120A9E76E
:108700001F483840216808602068806820F4802075
:1087100021688860D5E90301084321688968084316
:10872000216888602068C06820F080002168C860E7
:108730002068806800F0200090B9204600F022F800
:1087400070B100BFFF202168486200BF042084F898
:10875000210000BF002084F8200000BF012079E73D
:1087600000BFFF202168486200BF012084F821007B
:1087700000BF002084F8200000BF00BF6AE70000AF
:108780007F7F7F0070B5044600252068C06820F018
:10879000A0002168C860FDF7DBFC054607E0FDF797
:1087A000D7FC401BB0F57A7F01D9032070BD20684B
:1087B000C06800F020000028F1D00020F6E710B5D6
:1087C00004460CB9012010BD022084F85D00206829
:1087D000006820F0400021680860204600F075F82D
:1087E0000020206684F85D0000BF84F85C0000BFB4
:1087F00000BFE8E7014691F85D00704770B5044698
:108800000CB9012070BD94F85D0028B9002084F8EF
:108810005C00204600F05AF8022084F85D002068D1
:10882000006820F0400021680860E068B0F5E06F63
:1088300001D9002501E04FF48055E068B0F5706F74
:1088400005D0E068B0F5E06F01D00021A162206B97
:1088500040B9E068B0F5E06F02D90221216301E080
:1088600001212163D4E901010843216908436169B9
:108870000843218B01F400710843E1690843216A30
:108880000843A16A084321680860206B022805D1CB
:108890002068006840F40060216808600421A06935
:1088A00001EA1040616A0843616B0843E1680843CC
:1088B0002843216848602168E06A0861002020663A
:1088C000012084F85D0000209CE7704770472DE987
:1088D000F84304460F4616461D46FDF739FC804610
:1088E0004FF0000900BF94F85C00012802D102207B
:1088F000BDE8F883012084F85C0000BF94F85D00B7
:10890000012802D04FF00209AFE007B116B94FF0CD
:108910000109AAE0032084F85D0000202066A76317
:10892000A687E6872064A4F84400A4F84600A0685F
:10893000B0F5004F05D12068006840F48040216800
:108940000860A06AB0F5005F0ED100BF2068006823
:108950004DF6FF710840216808602068006840F407
:1089600000502168086000BF2068006800F04000E7
:10897000402805D02068006840F040002168086069
:10898000E068B0F5E06F21D91CE02068806800F055
:10899000020002280AD1A06B00882168C860A06B81
:1089A000801CA063E08F401EE0870BE03DB1681C97
:1089B00040B1FDF7CDFBA0EB0800A84202D34FF079
:1089C000030952E0E08F0028DFDC2DE029E0206879
:1089D000806800F00200022817D1E08F01280ADD2C
:1089E000A06B00882168C860A06B801CA063E08F2A
:1089F000801EE08715E0A16B481CA0630878216801
:108A00000873E08F401EE0870BE03DB1681C40B169
:108A1000FDF79EFBA0EB0800A84202D34FF003092C
:108A200023E0E08F0028D2DCA06AB0F5005F05D11A
:108A30002068006840F4805021680860294620467C
:108A400007F0B5F808B120202066A06840B900BF43
:108A50002068C068009020688068009000BF00BF58
:108A6000206E08B14FF0010900BF012084F85D00BD
:108A700000BF002084F85C0000BF484638E72DE9BD
:108A8000F84F04460F4690461D460A9EFDF760FBD0
:108A900081464FF0000A00BF94F85C00012802D123
:108AA0000220BDE8F88F012084F85C0000BF94F834
:108AB0005D00012802D04FF0020A56E11FB1B8F163
:108AC000000F00D015B94FF0010A4EE1052084F8DF
:108AD0005D0000202066C4F84080A4F84650A4F849
:108AE0004450A763E587A587A06AB0F5005F0ED163
:108AF00000BF206800684DF6FF71084021680860DB
:108B00002068006840F400502168086000BFE068F9
:108B1000B0F5E06F03D8B4F84600012806DD206800
:108B2000406820F480502168486005E02068406873
:108B300040F48050216848602068006800F04000E0
:108B4000402805D02068006840F040002168086097
:108B5000E068B0F5E06F47D93EE0E08F00281BDD0C
:108B60002068806800F00200022815D1A06B008800
:108B70002168C860A06B801CA063E08F401EE08766
:108B8000E08F48B9A06AB0F5005F05D120680068A1
:108B900040F4805021680860B4F84600002810DDD9
:108BA0002068806800F0010058B12068C068216C1E
:108BB0000880206C801C2064B4F84600401EA4F895
:108BC0004600701C40B1FDF7C3FAA0EB0900B042AB
:108BD00002D34FF0030AC8E0E08F0028BDDCB4F8F0
:108BE00046000028B9DC6DE065E0E08F002828DD54
:108BF0002068806800F00200022822D1E08F01285E
:108C00000ADDA06B00882168C860A06B801CA0638F
:108C1000E08F801EE08708E0A16B481CA063087805
:108C200021680873E08F401EE087E08F48B9A06A92
:108C3000B0F5005F05D12068006840F480502168DD
:108C40000860B4F8460000282ADD2068806800F03B
:108C5000010028B3B4F84600012816DD2068C0687A
:108C6000216C0880206C801C2064B4F84600801EB3
:108C7000A4F84600B4F84600012811DC20684068DA
:108C800040F48050216848600AE02068017B226C33
:108C9000501C20641170B4F84600401EA4F8460031
:108CA000701C40B1FDF754FAA0EB0900B04202D3AA
:108CB0004FF0030A59E0E08F002896DCB4F8460034
:108CC000002892DCA06AB0F5005F33D13346012260
:108CD0001146204607F048F830B1206E40F00200FF
:108CE00020664FF0030A40E0E068B0F5706F06D1EF
:108CF0002068C06880B20090BDF800001AE02068CB
:108D0000007B0090BDF80000206B022812D1334692
:108D100001221146204607F027F830B1206E40F0BE
:108D2000020020664FF0030A1FE02068007B0090DD
:108D3000BDF8000020688068C0F3001048B1206EC4
:108D400040F0020020664FF6EF70216888604FF017
:108D5000010A3146204606F02AFF08B1202020668D
:108D6000206E08B14FF0010A00BF012084F85D00B9
:108D700000BF002084F85C0000BF504691E670B54B
:108D800004462546681EB0F1807F01D301200FE024
:108D9000681E4FF0E02148610F214FF0FF3005F0D1
:108DA00001FE00204FF0E0218861072008610020CB
:108DB00070BD7047704710B504460CB9012010BD56
:108DC00094F8390028B9002084F83800204600F0D3
:108DD0000CF8022084F83900211D206807F088FF74
:108DE000012084F839000020E9E77047014608684F
:108DF000C06840F001000A68D0600868006840F070
:108E000001000A68106000207047704710B50446E2
:108E100020680069C0F34000D8B12068C068C0F382
:108E20004000B0B16FF00200216808610120207697
:108E30002068806900F0030018B12046FFF7E5FFC5
:108E400005E0204600F0ADF8204600F0ABF8002029
:108E5000207620680069C0F38000D8B12068C0681F
:108E6000C0F38000B0B16FF00400216808610220F7
:108E700020762068806900F4407018B12046FFF722
:108E8000C4FF05E0204600F08CF8204600F08AF888
:108E90000020207620680069C0F3C000D8B12068A7
:108EA000C068C0F3C000B0B16FF00800216808616D
:108EB000042020762068C06900F0030018B1204625
:108EC000FFF7A3FF05E0204600F06BF8204600F016
:108ED00069F80020207620680069C0F30010D8B13E
:108EE0002068C068C0F30010B0B16FF010002168B6
:108EF0000861082020762068C06900F4407018B12D
:108F00002046FFF782FF05E0204600F04AF82046A1
:108F100000F048F8002020762068006900F0010089
:108F200058B12068C06800F0010030B16FF0010056
:108F300021680861204600F037F820680069C0F316
:108F4000C01058B12068C068C0F3C01030B16FF0D5
:108F50008000216808612046FFF72BFF2068006928
:108F6000C0F3801058B12068C068C0F3801030B1E1
:108F70006FF0400021680861204600F04FF820683B
:108F80000069C0F3401058B12068C068C0F34010B9
:108F900030B16FF02000216808612046FFF70AFF1A
:108FA00010BD70477047000070B50646174800684E
:108FB00017490968884227D014480068144909688D
:108FC000884204D911480068C0F5006404E01048E4
:108FD00000680E490968441A0C480568A2B20D4899
:108FE00041190D4808F0C7F80B4808F017F958B9AF
:108FF0000648006820440549086008460068B0F546
:10900000006F01D10020086070BD000074050020D1
:1090100070050020EC170020A40D0020704738B523
:1090200004466B4601222021204600F0E7FA08B1F1
:10903000012038BD9DF8000040F0800000906B4694
:1090400001222021204600F0B6FC08B10120F0E703
:109050000020EEE738B5044600200090694620461F
:1090600000F0DBF9012800D138BD20789DF8001010
:10907000884201D00120F7E70020F5E738B5044623
:109080006B4601222021204600F0B8FA08B10120E9
:1090900038BD9DF8000020F0800000906B46012252
:1090A0002021204600F087FC08B10120F0E70020D5
:1090B000EEE7F8B506460C4615466B460122272119
:1090C000304600F09BFA08B10120F8BD9DF8000081
:1090D000C0F3400020709DF8000000F001002870EF
:1090E0000020F2E770B505460C46234601220F2109
:1090F000284600F083FA08B1012070BD0020FCE78B
:1091000038B505460C46002000906946284600F018
:1091100011F8012800D138BDBDF8000000EE100A9A
:10912000B8EE400AF2EE040A80EE201A84ED001A2E
:109130000020F0E72DE9F0472DED028B82B082464A
:109140000E4601AB02223021504600F057FA28B1FA
:10915000012002B0BDEC028BBDE8F0879DF8040051
:1091600044109DF805004FEA600801AB0222362149
:10917000504600F043FA08B10120EAE79DF80400E8
:109180009DF8051040EA012005B201AB02223A2108
:10919000504600F033FA08B10120DAE79DF80400E8
:1091A0009DF8051040EA012007B201AB02222821F8
:1091B000504600F023FA08B10120CAE79DF80400E8
:1091C0009DF8051040EA01200FFA80F9A9EB05008F
:1091D00000EE100AF8EEC00AA8EB040000EE100A38
:1091E000B8EEC00A20EE801A781B00EE100AB8EE26
:1091F000C00AC1EE000A00EE104AB8EEC00A30EE16
:10920000800AB0EE408AB2EE040A28EE000AB0EE00
:10921000408A9FED0C0AB4EEC08AF1EE10FA02DD2E
:109220004FF47A700BE0B5EEC08AF1EE10FA01D27D
:10923000002004E0BCEEC80A10EE100A80B23080B4
:10924000002086E700007A4438B505460C4669469A
:10925000284600F02DF8012800D138BD9DF8000007
:1092600030B1012809D002280CD0032814D10EE017
:109270009FED0E0A84ED000A14E0B7EE000A84EDBB
:10928000000A0FE0B1EE0C0A84ED000A0AE0B2EE2B
:10929000090A84ED000A05E0BFEE000A84ED000A29
:1092A0000120DAE700BF0020D7E70000000000003F
:1092B00038B505460C466B4601222021284600F0B1
:1092C0009DF908B1012038BD9DF8000000F00300B1
:1092D00000909DF8000020700020F4E738B50546A6
:1092E0000C46002000906946284600F011F801283D
:1092F00000D138BDBDF9000000EE100AB8EEC00A7A
:10930000F2EE040A80EE201A84ED001A0020F0E745
:109310002DE9F34F2DED028B83B0884602AB02227C
:109320003221059800F06AF928B1012003B0BDECA4
:10933000028BBDE8FC8F01AB01223521059800F0BE
:109340005DF908B10120F1E79DF808009DF80410CF
:1093500001F0030140EA01269DF809009DF8041080
:1093600001F00C0140EA8117F4104FEAE70B02AB61
:1093700004223C21059800F041F908B10120D5E70D
:109380009DF808009DF8091040EA012005B29DF8FB
:109390000A009DF80B1040EA01200FFA80F902AB99
:1093A00002222A21059800F029F908B10120BDE721
:1093B0009DF808009DF8091040EA01200FFA80FA94
:1093C000AAEB050000EE100AF8EEC00AABEB0400B1
:1093D00000EE100AB8EEC00A20EE801AA9EB0500D4
:1093E00000EE100AB8EEC00AC1EE000A00EE104A04
:1093F000B8EEC00A30EE800AB0EE408AB2EE040A3F
:1094000028EE000AB0EE408ABDEEC80A10EE100A3F
:1094100000B2A8F80000002088E770B504460D46A9
:1094200029462046FFF75EFE012800D170BD0020CE
:10943000FCE710B504462046FFF70CFE10BD10B542
:109440000446A06800680068407828B9204600F00B
:1094500060F8012800D110BD0020A16809680968E2
:109460000870607100BFF6E77CB505460C466A4699
:1094700001A92846FFF71DFE012800D17CBD9DF8FB
:10948000040018B1012804D1207004E000202070ED
:1094900001E00120F2E700BF0020EFE770B50446CD
:1094A0000D4629462046FFF72BFE70BD70B50446D9
:1094B0000D4629462046FFF7C7FE70BD70B504462D
:1094C0000D4629462046FFF7A8FF70BD10B504469B
:1094D000A06800680068407828B9204600F070F85D
:1094E000012800D110BD0120A16809680968087031
:1094F00060710020F6E770B504460D461646324608
:109500002946204600F08CF8012800D170BD0020CB
:10951000FCE710B50446A07908B9002010BDA0688A
:1095200000680068C07828B9204600F088F8012853
:1095300000D1F3E70020A168096809688870A0716C
:1095400000BFEBE710B50446A079012801D1002047
:1095500010BDA06800680068C07828B9204600F0F7
:1095600078F8012800D1F3E70120A16809680968AB
:109570008870A0710020EBE770B504460D462946BF
:10958000204600F0BDF870BD10B52DED028B0446ED
:10959000B0EE408AB0EE480A204600F0D1F8BDECAB
:1095A000028B10BD70B504460D461646324629465C
:1095B000204600F012FA012800D170BD0020FCE71F
:1095C00010B504462046FFF745FD012800D110BD27
:1095D0002046FFF753FD012800D1F8E7012120467E
:1095E00000F042F8012800D1F1E70021204600F008
:1095F00087F8012800D1EAE70020E8E72DE9F041EB
:1096000006460F4614461D4623462A46394630462E
:1096100007F0AAF810B10120BDE8F0810020FBE7B7
:1096200070B505460E4614462346012231462846AB
:10963000FFF7E4FF012800D170BD0020FCE710B562
:1096400004462046FFF71AFD012800D110BD002076
:10965000FCE710B504462046FFF7E1FC012800D1E5
:1096600010BD0020FCE7000038B505460C46012C73
:1096700000D004B904E040F25F2111A000F0BCF971
:109680006B46012220212846FFF7B8FF08B10120D0
:1096900038BD9DF8000020F0040000909DF8000007
:1096A00040EA8400C0B200906B4601222021284687
:1096B00000F081F908B10120EAE70020E8E70000A6
:1096C0002E2E5C2E2E5C2E2E5C2E2E5C2E2E5C44BE
:1096D0007269766572735C4253505C436F6D706F54
:1096E0006E656E74735C6874733232315C485453C7
:1096F0003232315F4472697665722E630000000079
:1097000070B506460D46052D0ED2DFE805F00305BF
:1097100007090B00012409E0032407E0032405E006
:10972000032403E0032401E0012070BD00BF2146B3
:10973000304600F02BF8012800D1F6E70020F4E7CE
:1097400070B52DED028B0446B0EE408AB7EE000AEC
:10975000B4EEC08AF1EE10FA01D8012009E0B1EEB2
:109760000C0AB4EEC08AF1EE10FA01D8022000E033
:10977000032005462946204600F008F8012802D1BA
:10978000BDEC028B70BD0020FAE7000038B505463D
:109790000C462CB1012C03D0022C01D0032C00D19B
:1097A00004E040F2B62110A000F026F96B46012239
:1097B00020212846FFF722FF08B1012038BD9DF87F
:1097C000000020F0030000909DF80000204300906E
:1097D0006B4601222021284600F0EDF808B1012057
:1097E000ECE70020EAE700002E2E5C2E2E5C2E2EE9
:1097F0005C2E2E5C2E2E5C447269766572735C4220
:1098000053505C436F6D706F6E656E74735C6874FB
:10981000733232315C4854533232315F447269766C
:1098200065722E630000000010B504462046FFF765
:1098300011FC10BD10B50446A068006800680078EF
:1098400028B9204600F060F8012800D110BD0020A2
:10985000A168096809684870607100BFF6E77CB5C7
:1098600005460C466A4601A92846FFF722FC012856
:1098700000D17CBD9DF8000018B1012804D12070F2
:1098800004E00020207001E00120F2E700BF00208A
:10989000EFE770B504460D4629462046FFF7D4FC95
:1098A00070BD70B504460D4629462046FFF716FDEB
:1098B00070BD70B504460D4629462046FFF7ADFD44
:1098C00070BD10B50446A06800680068007828B92B
:1098D0002046FFF775FE012800D110BD0120A168C8
:1098E00009680968487060710020F6E770B50446A1
:1098F0000D461646324629462046FFF791FE0128BE
:1099000000D170BD0020FCE710B50446A07908B96D
:10991000002010BDA06800680068807828B9204643
:10992000FFF78DFE012800D1F3E70020A168096848
:109930000968C870A07100BFEBE710B50446A079B4
:10994000012801D1002010BDA0680068006880785F
:1099500028B92046FFF77DFE012800D1F3E701205A
:10996000A16809680968C870A0710020EBE770B5AC
:1099700004460D4629462046FFF7C2FE70BD10B5CD
:109980002DED028B0446B0EE408AB0EE480A204628
:10999000FFF7D6FEBDEC028B10BD70B504460D4638
:1099A000164632462946204600F017F8012800D115
:1099B00070BD0020FCE72DE9F04106460F46144635
:1099C0001D4623462A463946304607F0BBF810B1FB
:1099D0000120BDE8F0810020FBE737B504460D46C5
:1099E00002AB012229462046FFF7E5FF012800D1FE
:1099F0003EBD0020FCE7000004460D462A462146F5
:109A000002A008F0DFFF00BFFEE7000057726F6E94
:109A10006720706172616D65746572732076616C28
:109A200075653A2066696C65202573206F6E206C21
:109A3000696E652025640D0A0000000000BFFEE786
:109A400001688969C1F3400111B100210268916286
:109A50000168896901F0010129B90168896941F04A
:109A6000010102689161704770B504460D461646C3
:109A700020688069C0F30010002837D013E0681C0C
:109A800088B125B1FCF764FB801BA8420BD92020CC
:109A900084F84100002084F8420000BF84F84000B0
:109AA00000BF032070BD20688069C0F3401000280B
:109AB000E5D010202168C86120202168C8612046B7
:109AC000FFF7BEFF206840680949084021684860E8
:109AD00004206064202084F84100002084F84200C3
